S01000006D61696E746573742E73726563AF
S11300000C9434000C9451000C9451000C94510045
S11300100C9451000C9451000C9451000C94510018
S11300200C9451000C9451000C9451000C94510008
S11300300C9451000C9451000C9451000C945100F8
S11300400C9451000C9451000C9451000C945100E8
S11300500C9451000C9451000C9451000C945100D8
S11300600C9451000C94510011241FBECFEFD8E022
S1130070DEBFCDBF11E0A0E0B1E0E0E9F0E102C0F5
S113008005900D92A236B107D9F721E0A2E6B1E0BE
S113009001C01D92A53AB207E1F70E94D1050C9464
S11300A046080C940000EAE7F0E087E8808382E4E5
S11300B080937C00808180648083808184FFFDCF75
S11300C08091780080936E012091790090E0922BCA
S11300D09093700180936F010895EAE7F0E087E858
S11300E0808383E480937C0080818064808380812A
S11300F084FFFDCF8091780080936E012091790078
S113010090E0922B9093700180936F010895EAE739
S1130110F0E087E8808380E480937C0080818064C1
S11301208083808184FFFDCF8091780080936E016D
S11301302091790090E0922B9093700180936F014D
S11301400895EAE7F0E087E8808381E480937C0007
S1130150808180648083808184FFFDCF80917800DA
S113016080936E012091790090E0922B909370011E
S113017080936F0108956F927F928F929F92BF92A6
S1130180CF92DF92EF92FF920F931F93CF93DF935F
S113019000D000D01F92CDB7DEB74C013B01FE0169
S11301A0319685E0DF011D928A95E9F7529A5A9AB1
S11301B0BFEFE1EEF4E0B150E040F040E1F700C001
S11301C000005A988FEC97E00197F1F700C0000007
S11301D05A9A529895ED9A95F1F700004A999EC063
S11301E0AFE3B1E01197F1F700C000004A9B98C05B
S11301F0EFE3F1E03197F1F700C000008E010F5FEB
S11302001F4F6E01F6E0CF0ED11C0F2EF7E0FF2E2C
S1130210F02DB12C60E0E1E0F0E079EC90E027C053
S11302202150310919F47EC0272F392F4A9BF8CF6A
S113023020EA2A95F1F74A9B08C09F01042E02C0C8
S1130240220F331F0A94E2F7822B272F392F04C081
S11302502150310909F468C04A99FACF4150510933
S113026018F7D8018D938D01AC15BD0521F04F2DE4
S11302705B2D862FD9CF529A5A9ABFEFE1EEF4E064
S1130280B150E040F040E1F700C000002981EA806D
S11302909B816C818E2D820F890F860F3D81831384
S11302A045C06301F12CF22A70E0792B7723A4F482
S11302B07F7780E090E00E945A0720E030E040E23F
S11302C051E40E94B206DC01CB01B058F4018083F2
S11302D09183A283B38310C080E090E00E945A0708
S11302E020E030E040E251E40E94B206D4016D9374
S11302F07D938D939C931397B70180E090E00E94C7
S11303005A0720E030E040E251E40E94B206F601D0
S1130310608371838283938380E009C08FEF07C079
S11303208FEF05C08FEF03C08FEF01C08FEF0F90E9
S11303300F900F900F900F90DF91CF911F910F911D
S1130340FF90EF90DF90CF90BF909F908F907F9021
S11303506F900895CF93DF9300D000D0CDB7DEB770
S113036019821A821B821C82BE016F5F7F4F0E941A
S1130370BB000F900F900F900F90DF91CF910895D5
S11303805E9A5F9A08955E985F9808955D9A5B9A65
S113039008955D985B98089580FF03C095B195B961
S11303A002C095B195B981FF03C095B195B902C05A
S11303B095B195B982FF03C095B195B902C095B1C5
S11303C095B983FF03C085B185B9089585B185B911
S11303D0089598B198B90E94CC0188B188B989EF81
S11303E090E00197F1F700C0000088B188B989EF67
S11303F090E00197F1F700C00000089580E00E94AA
S1130400E90181E00E94E9010895CF93C62F81306C
S113041059F480E8860F82958F700E94E9018C2F31
S11304208F700E94E90126C0823059F480EC860F57
S113043082958F700E94E9018C2F8F700E94E901D0
S113044019C0833059F4CC568C2F82958F700E943A
S1130450E9018C2F8F700E94E9010CC0843051F4A3
S1130460CC528C2F82958F700E94E9018C2F8F7053
S11304700E94E901CF91089580E00E94CC0187E8B1
S113048093E10197F1F700C0000083E00E94E901C5
S113049081EE94E00197F1F700C0000083E00E9430
S11304A0E9018DEB9AE00197F1F700C0000083E0C9
S11304B00E94E90182E00E94E90182E00E94E901D0
S11304C088E00E94E90180E00E94E9018CE00E943A
S11304D0E90180E00E94E90186E00E94E9010895B3
S11304E0CF93C82F88B188B98C2F82958F700E94C2
S11304F0CC0188B188B989EF90E00197F1F700C089
S1130500000088B188B989EF90E00197F1F700C045
S113051000008C2F8F700E94CC0188B188B989EFBC
S113052090E00197F1F700C0000088B188B989EF25
S113053090E00197F1F700C00000CF910895CF93A8
S1130540DF93EC018881882331F021960E947002A8
S113055089918111FBCFDF91CF9108950E9487008B
S113056090937201809371010E94A100909376018F
S11305708093750162E070E082E090E00E940502E1
S113058080E091E00E949F0262E070E082E090E0EF
S11305900E94050280917101909172014AE065E820
S11305A071E00E94110885E891E00E949F0267E0D3
S11305B070E082E090E00E940502809175019091C4
S11305C076014AE065E871E00E94110885E891E04F
S11305D00E949F0287E791E00E94AA016AE070E00E
S11305E081E090E00E9405026091770170917801AA
S11305F08091790190917A010E942407DC01CB015A
S11306004AE06BE771E00E9411088BE791E00E94D9
S11306109F028091710190917201853F91400CF489
S11306209CC08091750190917601843F91400CF0BB
S113063094C087E791E00E94AA016AE070E081E03B
S113064090E00E9405026091770170917801809199
S1130650790190917A010E942407DC01CB014AE0E0
S11306606BE771E00E9411088BE791E00E949F0202
S113067060917701709178018091790190917A016C
S113068020916601309167014091680150916901A0
S11306900E940C088823DCF00E9475060E948606DE
S11306A00E94C00167E070E083E090E00E940502D0
S11306B085E091E00E949F0267E070E083E090E0B3
S11306C00E94050283E191E00E949F0208956091D7
S11306D07701709178018091790190917A0120914C
S11306E06A0130916B0140916C0150916D010E943F
S11306F0AD068823DCF40E9473060E948F060E94D4
S1130700C30167E070E083E090E00E94050285E0A9
S113071091E00E949F0267E070E083E090E00E9415
S113072005028DE191E00E949F0208950E947506E2
S113073067E070E083E090E00E94050285E091E0CC
S11307400E949F0267E070E083E090E00E9405024F
S113075086E291E00E949F02089580917101909138
S113076072018C3291400CF0BAC080917501909165
S11307707601813293400CF4B2C087E791E00E9485
S1130780AA016AE070E081E090E00E9405026091B5
S11307907701709178018091790190917A010E949A
S11307A02407DC01CB014AE06BE771E00E941108E9
S11307B08BE791E00E949F0260917701709178012C
S11307C08091790190917A012091660130916701BD
S11307D040916801509169010E940C088823CCF073
S11307E00E9475060E94C00167E070E083E090E01B
S11307F00E94050285E091E00E949F0267E070E09C
S113080083E090E00E9405028CE291E00E949F0246
S113081008956091770170917801809179019091A8
S11308207A0120916A0130916B0140916C015091E1
S11308306D010E94AD068823DCF40E9473060E94B9
S1130840C3010E948F0667E070E083E090E00E949D
S1130850050285E091E00E949F0267E070E083E07A
S113086090E00E9405028DE191E00E949F020895AC
S113087087E791E00E94AA016AE070E081E090E0DD
S11308800E9405026091770170917801809179014D
S113089090917A010E942407DC01CB014AE06BE7C6
S11308A071E00E9411088BE791E00E949F020E9470
S11308B075060E94C30167E070E083E090E00E9447
S11308C0050285E091E00E949F0267E070E083E00A
S11308D090E00E94050285E391E00E949F02089542
S11308E00F931F93CF93DF930E9453008C010E94B8
S11308F06D00EC016EE070E081E090E00E94050282
S11309008BE391E00E949F0260E170E081E090E05F
S11309100E9405024AE065E871E0C8010E941108DE
S113092085E891E00E949F0221E090E0C83ED34018
S11309300CF420E0C22FD92FC130D10571F467E047
S113094070E084E090E00E94050285E091E00E945E
S11309509F0205361105D4F01AC167E070E084E007
S113096090E00E94050285E091E00E949F0267E00A
S113097070E084E090E00E9405028FE391E00E9421
S11309809F02033311050CF45FC0DDC060E070E02A
S113099083E090E00E94050282E491E00E949F02BD
S11309A067E070E083E090E00E94050285E091E05A
S11309B00E949F0267E070E083E090E00E940502DD
S11309C08AE491E00E949F020E94C6019FEF23ECFB
S11309D089E0915020408040E1F700C000009FEF83
S11309E023EC89E0915020408040E1F700C00000F2
S11309F09FEF23EC89E0915020408040E1F700C054
S1130A0000000E9470040E94C90160E070E083E06D
S1130A1090E00E94050282E491E00E949F0267E058
S1130A2070E083E090E00E94050285E091E00E947E
S1130A309F0267E070E083E090E00E9405028DE48D
S1130A4091E00E949F02A8C0CD2B09F47CC060E015
S1130A5070E084E090E00E94050280E591E00E944D
S1130A609F0267E070E084E090E00E94050285E068
S1130A7091E00E949F0267E070E084E090E00E94B1
S1130A80050287E591E00E949F0260E070E083E048
S1130A9090E00E94050282E491E00E949F0267E0D8
S1130AA070E083E090E00E94050285E091E00E94FE
S1130AB09F0267E070E083E090E00E9405028AE410
S1130AC091E00E949F020E94C6019FEF23EC89E0FF
S1130AD0915020408040E1F700C000009FEF23ECDC
S1130AE089E0915020408040E1F700C000009FEF72
S1130AF023EC89E0915020408040E1F700C00000E1
S1130B000E9470040E94C90160E070E083E090E0FC
S1130B100E94050282E491E00E949F0267E070E077
S1130B2083E090E00E94050285E091E00E949F022C
S1130B3067E070E083E090E00E9405028DE491E0BC
S1130B400E949F0229C00536110534F50E94C9018F
S1130B5060E070E083E090E00E94050282E491E0AE
S1130B600E949F0267E070E083E090E00E9405022B
S1130B7085E091E00E949F0267E070E083E090E0EE
S1130B800E9405028DE491E00E949F0205C0033398
S1130B9011050CF45CCFD7CFDF91CF911F910F914A
S1130BA008950E94980682E690E00E94A5068FE6CA
S1130BB090E00E94A5068FE690E00E94A50684E7D7
S1130BC090E00E94A506209A289884B18C6384B989
S1130BD087B1806387B90E94FE010E943C028AB1FA
S1130BE088648AB9219AE0E8F0E08081826C80838D
S1130BF0E1E8F0E080818B618083299A87B187B92D
S1130C005A9A80E090E0A8EBB1E480936A01909353
S1130C106B01A0936C01B0936D0140E050E060EC77
S1130C2071E4409366015093670160936801709387
S1130C3069018093620190936301A0936401B0936E
S1130C40650160E070E081E090E00E9405028AE5C1
S1130C5091E00E949F0264E070E081E090E00E94D5
S1130C600502609162017091630180916401909129
S1130C7065010E942407DC01CB014AE06BE771E0C7
S1130C800E9411088BE791E00E949F0267E070E0E8
S1130C9081E090E00E9405028EE591E00E949F02AF
S1130CA060E070E082E090E00E9405028CE391E055
S1130CB00E949F0260E070E083E090E00E940502E1
S1130CC082E491E00E949F0260E070E084E090E0A2
S1130CD00E94050280E591E00E949F020E94AE02FC
S1130CE00E947004FBCF289A08952898089522E35F
S1130CF080E090E0FC013197F1F7FC013197F1F7C6
S1130D00FC013197F1F72150A9F7089589EF90E09C
S1130D1090938900809388000E947706089583EF5A
S1130D2091E090938900809388000E94770608954B
S1130D3087E690E09093C5008093C40088E1809397
S1130D40C1008EE08093C2000895E0ECF0E0908151
S1130D5095FFFDCF8093C60008950E94970708F47D
S1130D6081E008950E94C6060C94D2070E94CB0726
S1130D7058F00E94C40740F029F45F3F29F00C9416
S1130D80BB0751110C9406080C94C1070E94E30799
S1130D9068F39923B1F3552391F3951B550BBB27A6
S1130DA0AA2762177307840738F09F5F5F4F220FEB
S1130DB0331F441FAA1FA9F335D00E2E3AF0E0E8E2
S1130DC032D091505040E695001CCAF72BD0FE2F2C
S1130DD029D0660F771F881FBB1F261737074807C0
S1130DE0AB07B0E809F0BB0B802DBF01FF27935878
S1130DF05F4F3AF09E3F510578F00C94BB070C947A
S1130E0006085F3FE4F3983ED4F38695779567959B
S1130E10B795F7959F5FC9F7880F911D96958795AC
S1130E2097F90895E1E0660F771F881FBB1F6217CB
S1130E3073078407BA0720F0621B730B840BBA0B89
S1130E40EE1F88F7E09508950E942B076894B1116E
S1130E500C94060808950E94EB0788F09F5798F0B9
S1130E60B92F9927B751B0F0E1F0660F771F881FAB
S1130E70991F1AF0BA95C9F714C0B13091F00E94C5
S1130E800508B1E008950C940508672F782F88278A
S1130E90B85F39F0B93FCCF3869577956795B395EC
S1130EA0D9F73EF490958095709561957F4F8F4F5B
S1130EB09F4F0895E89409C097FB3EF49095809560
S1130EC0709561957F4F8F4F9F4F9923A9F0F92F0C
S1130ED096E9BB279395F695879577956795B7958A
S1130EE0F111F8CFFAF4BB0F11F460FF1BC06F5F70
S1130EF07F4F8F4F9F4F16C0882311F096E911C082
S1130F00772321F09EE8872F762F05C0662371F0A2
S1130F1096E8862F70E060E02AF09A95660F771FB6
S1130F20881FDAF7880F9695879597F90895990F92
S1130F300008550FAA0BE0E8FEEF16161706E8079F
S1130F40F907C0F012161306E407F50798F0621BC0
S1130F50730B840B950B39F40A2661F0232B242B95
S1130F60252B21F408950A2609F4A140A6958FEFB4
S1130F70811D811D089597F99F6780E870E060E006
S1130F8008959FEF80EC089500240A94161617061E
S1130F9018060906089500240A9412161306140666
S1130FA005060895092E0394000C11F4882352F0C9
S1130FB0BB0F40F4BF2B11F460FF04C06F5F7F4F81
S1130FC08F4F9F4F089557FD9058440F551F59F068
S1130FD05F3F71F04795880F97FB991F61F09F3F22
S1130FE079F087950895121613061406551FF2CF4B
S1130FF04695F1DF08C0161617061806991FF1CF9B
S113100086957105610508940895E894BB276627C1
S11310107727CB0197F908950E94970708F48FEF7B
S11310200895BB274A3031F4992322F4BDE2909508
S113103081959F4F0C941D08BB27FB015527AA27B8
S1131040880F991FAA1FA41710F0A41B8395505151
S1131050B9F7A05DAA3308F0A95DA193009779F7C9
S1131060B111B1931192CB010C943608DC01FC014F
S1131070672F71917723E1F7329704C07C916D93C8
S113108070836291AE17BF07C8F30895F894FFCF39
S1131090202020202020202020202020202020204C
S11310A02020006C462C73462C664F2C006C4F2C71
S11310B0734F2C6646006C462C734F006C462C73A1
S11310C0462C664F006C462C664600534C3A00771B
S11310D04300416374696F6E3A00704F00704600BC
S11310E04572726F723A0073430053743A00497444
S10510F00000FA
S9030000FC
